:100000000C942E010C945F010C945F010C945F0121
:100010000C945F010C945F010C945F010C945F01E0
:100020000C945F010C945F010C945F010C945F01D0
:100030000C945F010C945F010C945F010C945F01C0
:100040000C945F010C945F010C945F010C945F01B0
:100050000C945F010C945F010C945F010C942D06CD
:100060000C945F010C94F7050C94CD050C945F0182
:100070000C945F010C945F010C945F010C945F0180
:100080000C945F010C945F010C945F010C945F0170
:100090000C945F010C945F010C945F010C945F0160
:1000A0000C945F010C945F010C9477060C945F0133
:1000B0000C945F010C945F010C945F010C945F0140
:1000C0000C945F010C945F010C945F010C945F0130
:1000D0000C945F010C945F010C945F010C945F0120
:1000E0000C945F010C942C030C94D0010C94970396
:1000F0000C941B050C94FF020C94BC010C94280377
:100100000C940A030C9403030C94AC060C941E0389
:100110000C9410030C9498030C9430030C943A0341
:100120000C94E4020C94FB020C94AD010C941403A7
:100130000C941A030C94DE010C9463020C9480015D
:100140000C94E9020C9416020C9407030C942203FD
:100150000C94360300000A0B02090C0D0E0807036D
:10016000040100000000000000000000000000008A
:10017000000000000000000000000000000000007F
:10018000121110000000000000000000000000003C
:100190000000000000000000000000002200250018
:1001A00028002B002E003100340002010000050160
:1001B00008010B0100002100240027002A002D0067
:1001C0003000330001010000040107010A010505A8
:1001D0000505070508080808020202020A0A0808BD
:1001E00004040404010101010101010103030303EB
:1001F00003030303040707070C0C0C0C0C0C0C0C7A
:100200000202020206060606060606060B0B0B0B8A
:100210000B0B0B0B010210202008081020401020AF
:1002200040800201020108040201010204081020BA
:1002300040808040201008040201800402018040B8
:100240002010080402010804020101020408102021
:1002500040800102040810204080AC0611241FBE1B
:10026000CFEFD1E2DEBFCDBF00E00CBF23E0A6E5BB
:10027000B2E001C01D92AE3CB207E1F712E0A0E08F
:10028000B2E0E6E0F3E100E00BBF02C007900D92A0
:10029000A635B107D9F711E0CEE2D1E000E006C003
:1002A00021970109802FFE010E947909CD32D107E3
:1002B00080E00807A9F70E94FB060C9481090C94C2
:1002C000000090E0FC01EC5EFD4F249182539E4FB4
:1002D000FC018491882399F090E0880F991FFC011C
:1002E000EC54FE4FA591B491FC01E656FE4F85916A
:1002F00094918FB7F894EC91E22BEC938FBF089513
:10030000AF92BF92CF92DF92EF92FF920F931F9323
:10031000CF93DF936C017B018B01040F151FEB0161
:100320005E01AE18BF08C017D10759F06991D60118
:10033000ED91FC910190F081E02DC6011995892B7A
:1003400079F7C501DF91CF911F910F91FF90EF9049
:10035000DF90CF90BF90AF900895FC01538D448DF6
:10036000252F30E0842F90E0821B930B541710F060
:10037000CF96089501970895FC01918D828D98176D
:1003800061F0A28DAE0FBF2FB11D5D968C91928D45
:100390009F5F9F73928F90E008958FEF9FEF089576
:1003A000FC01918D828D981731F0828DE80FF11D3F
:1003B000858D90E008958FEF9FEF0895FC01918D5A
:1003C000228D892F90E0805C9F4F821B91098F7353
:1003D0009927089589E193E00E94DE0121E0892BAD
:1003E00009F420E0822F0895FC01A48DA80FB92FF5
:1003F000B11DA35ABF4F2C91848D90E001968F734D
:100400009927848FA689B7892C93A089B1898C916B
:10041000837080648C93938D848D981306C00288BA
:10042000F389E02D80818F7D80830895EF92FF9284
:100430000F931F93CF93DF93EC0181E0888F9B8D07
:100440008C8D98131AC0E889F989808185FF15C0C1
:100450009FB7F894EE89FF896083E889F9898081E4
:100460008370806480839FBF81E090E0DF91CF91B3
:100470001F910F91FF90EF900895F62E0B8D10E0D5
:100480000F5F1F4F0F731127E02E8C8D8E110CC044
:100490000FB607FCFACFE889F989808185FFF5CF8F
:1004A000CE010E94F401F1CFEB8DEC0FFD2FF11D79
:1004B000E35AFF4FF0829FB7F8940B8FEA89FB89CC
:1004C00080818062CFCFCF93DF93EC01888D88232A
:1004D000B9F0AA89BB89E889F9898C9185FD03C0A7
:1004E000808186FD0DC00FB607FCF7CF8C9185FF8C
:1004F000F2CF808185FFEDCFCE010E94F401E9CFDC
:10050000DF91CF91089580E090E0892B29F00E943F
:10051000EA0181110E94000080E090E0892B49F0FF
:1005200080E090E0892B29F00E94000081110E9458
:10053000000080E090E0892B49F080E090E0892B7A
:1005400029F00E94000081110E94000080E090E0EC
:10055000892B49F080E090E0892B29F00E9400006F
:1005600081110C9400000895282F30E0F901EC5A15
:10057000FE4F9491F901EC5EFD4F449122533E4FA2
:10058000F9012491222309F435C0992311F19150E6
:100590009231F8F4E92FF0E08827EE52FD4F8F4FAB
:1005A0000C94790903030703E402FB02FF02E9024A
:1005B0000A03100314031A031E03220328032C0347
:1005C000E902300336033A03809180008F778093ED
:1005D0008000E22FF0E0EE0FFF1FE656FE4FA591E0
:1005E000B4918FB7F894EC91611148C040954E23B7
:1005F0004C938FBF0895809180008F7DE8CF8091CC
:100600008000877FE4CF84B58F7784BDE2CF84B547
:100610008F7DFBCF8091B0008F778093B000D9CFD2
:100620008091B0008F7DF9CF809190008F7780937B
:100630009000CFCF809190008F7DF9CF8091900076
:10064000877FF5CF8091A0008F778093A000C1CFE6
:100650008091A0008F7DF9CF8091A000877FF5CF9A
:10066000809120018F7780932001B3CF809120016A
:100670008F7DF9CF80912001877FF5CF4E2BB8CFAA
:100680003FB7F89480915B0290915C02A0915D026B
:10069000B0915E0226B5A89B05C02F3F19F00196C8
:1006A000A11DB11D3FBFBA2FA92F982F8827BC01CC
:1006B000CD01620F711D811D911D42E0660F771FF4
:1006C000881F991F4A95D1F708958F929F92AF92F4
:1006D000BF92CF92DF92EF92FF924B015C010E949A
:1006E00040036B017C010E9440036C197D098E0957
:1006F0009F09683E734081059105A8F321E0821AA5
:100700009108A108B10888EEC80E83E0D81EE11C4C
:10071000F11C81149104A104B10429F7FF90EF901A
:10072000DF90CF90BF90AF909F908F9008950895E5
:1007300090E080E0089561E08BE00E94B40264EFF5
:1007400071E080E090E00E94650360E08BE00C9433
:10075000B40261E08BE00E94B40262E370E080E0EA
:1007600090E00E94650360E08BE00E94B40269E1C2
:1007700070E080E090E00E94650361E08BE00E9401
:10078000B40262E370E080E090E00E94650360E004
:100790008BE00C94B402CF93DF93EC0160E08E8188
:1007A0000E94B40261E08E810E94B40260E08E81FA
:1007B0000E94B4028BE891E00197F1F7DF91CF91AD
:1007C0000895CF92DF92EF92FF920F931F93CF93F2
:1007D000DF936C017C0187E0E80EF11CD0E0C0E003
:1007E000062F10E0B8010C2E02C0759567950A948B
:1007F000E2F76170F70181917F010E94B4022196B6
:10080000C430D10579F7C601DF91CF911F910F91C7
:10081000FF90EF90DF90CF900C94CB03CF92DF92BC
:10082000EF92FF920F931F93CF93DF93EC01F62E7D
:10083000642F8C810E94B4028D818F3F19F060E09B
:100840000E94B4020F2D10E08F8584FF25C06E0139
:1008500087E0C80ED11CF12CE12CB8010E2C02C08F
:10086000759567950A94E2F76170F60181916F01C1
:100870000E94B402FFEFEF1AFF0A88E0E816F104C5
:1008800061F7CE01DF91CF911F910F91FF90EF9013
:10089000DF90CF900C94CB03B80184E075956795F9
:1008A0008A95E1F7CE010E94E1036F2DCE01DF9121
:1008B000CF911F910F91FF90EF90DF90CF900C940C
:1008C000E10340E0682F86EB93E00C940E0481E096
:1008D0000E9461048BE39FE10197F1F70895CF93A4
:1008E000DF93823029F49091C50398609093C503FB
:1008F0008093C9031092CA0380E48093CB0380E104
:100900008093CC0380E58093CD038091BA030E944D
:1009100061018091BB038F3F11F00E9461018091C2
:10092000BC030E946101C6EBD3E09E01265B33400D
:100930008091C50384FD0AC084E090E021962817C9
:1009400039073CF48E810E946101EFCF88E090E08E
:10095000F5CF8BE39DE00197F1F760E08091BA035A
:100960000E94B40260E08091BC030E94B4028091B6
:10097000BB038F3F19F060E00E94B4028091C50371
:1009800084FD34C063E086EB93E00E94E103CBE496
:10099000D6E4CE010197F1F763E086EB93E00E9485
:1009A000E1032197F1F763E086EB93E00E94E10316
:1009B00083E592E00197F1F762E086EB93E00E9415
:1009C000E1038091C50380620E94610484E080930A
:1009D000C6038CE00E9461040E94670482E0809359
:1009E000C70386E0DF91CF910C94610480620E947E
:1009F00061048BE496E40197F1F78091C50380626E
:100A00000E94610483E592E00197F1F78091C503AC
:100A100080620E946104D5CF9091C903691710F0DC
:100A20006FEF690FE62FF0E0EA54FC4F9489890FCD
:100A300080680C94610441E00E940E0481E090E023
:100A40000895FB0101900020E9F73197AF01461BA3
:100A5000570BDC01ED91FC910280F381E02D19949C
:100A60008F929F92AF92BF92EF92FF920F931F933C
:100A7000CF93DF93CDB7DEB7A1970FB6F894DEBF63
:100A80000FBECDBF7C01FA01CB0119A2223008F4C0
:100A90002AE08E010F5D1F4F822E912CB12CA12CCC
:100AA000BF01A50194010E945709F901CA016A30EA
:100AB0000CF5605DD8016E938D01232B242B252B23
:100AC00079F790E080E0109721F0BD01C7010E9406
:100AD0002105A1960FB6F894DEBF0FBECDBFDF9102
:100AE000CF911F910F91FF90EF90BF90AF909F908B
:100AF0008F900895695CDECF462F50E070E060E093
:100B00002AE00C943005AC01990F660B770B2AE0B4
:100B100086EB93E00C9430050C942105CF93DF9382
:100B2000EC0160E083E00E940C0588818A3030F49B
:100B30006EE172E086EB93E00E948C05688186EBA3
:100B400093E00E947C0560E272E086EB93E00E94F5
:100B50008C0589818A3030F46EE172E086EB93E097
:100B60000E948C05698186EB93E00E947C0560E21F
:100B700072E086EB93E00E948C058A818A3030F423
:100B80006EE172E086EB93E00E948C056A8186EB51
:100B900093E0DF91CF910C947C051F920F920FB6DA
:100BA0000F9211240BB60F922F933F934F935F93A5
:100BB0006F937F938F939F93AF93BF93EF93FF9325
:100BC00089E193E00E94F401FF91EF91BF91AF9111
:100BD0009F918F917F916F915F914F913F912F9155
:100BE0000F900BBE0F900FBE0F901F9018951F9285
:100BF0000F920FB60F9211240BB60F922F938F9373
:100C00009F93EF93FF93E0912903F0912A03808152
:100C1000E0912F03F091300382FD1DC090818091FF
:100C200032038F5F8F7320913303821741F0E0917D
:100C30003203F0E0E75EFC4F958F80933203FF9123
:100C4000EF919F918F912F910F900BBE0F900FBE40
:100C50000F901F9018958081F2CF1F920F920FB6C0
:100C60000F9211242F933F938F939F93AF93BF9332
:100C70008091570290915802A0915902B0915A0266
:100C80003091560223E0230F2D3758F50196A11D10
:100C9000B11D209356028093570290935802A0935F
:100CA0005902B0935A0280915B0290915C02A0912C
:100CB0005D02B0915E020196A11DB11D80935B02A1
:100CC00090935C02A0935D02B0935E02BF91AF91DE
:100CD0009F918F913F912F910F900FBE0F901F907A
:100CE000189526E8230F0296A11DB11DD2CF1F92A1
:100CF0000F920FB60F9211248F9380915F02811192
:100D00000BC0809118038F5F8C3361F080931803C0
:100D100080911803882379F08F910F900FBE0F9068
:100D20001F90189510921803809117038F5F8C33D2
:100D300031F08093170381E080931503EDCF10927B
:100D40001703809116038F5F883119F08093160383
:100D5000F2CF10921603DCCFE9E1F3E013821282A6
:100D600088EE93E0A0E0B0E084839583A683B78308
:100D700084E092E09183808385EC90E0958784877E
:100D800084EC90E09787868780EC90E0918B808B55
:100D900081EC90E0938B828B82EC90E0958B848B3E
:100DA00086EC90E0978B868B118E128E138E148EAC
:100DB000E6EBF3E01382128286E192E09183808376
:100DC00085E0848386E0858387E0868385E2878368
:100DD00084E2808783E2818782E2828781E283875F
:100DE00080E284878FE185878EE1868780E187872F
:100DF00081E00C946F04CF93DF931F921F92CDB7C5
:100E0000DEB7789484B5826084BD84B5816084BD8A
:100E100085B5826085BD85B5816085BD80916E0098
:100E2000816080936E0010928100809181008260C9
:100E30008093810080918100816080938100809106
:100E400080008160809380008091B10084608093F5
:100E5000B1008091B00081608093B00080919100DA
:100E600082608093910080919100816080939100D5
:100E7000809190008160809390008091A1008260B9
:100E80008093A1008091A10081608093A100809156
:100E9000A00081608093A0008091210182608093F6
:100EA00021018091210181608093210180912001A5
:100EB00081608093200180917A00846080937A0021
:100EC00080917A00826080937A0080917A008160BC
:100ED00080937A0080917A00806880937A001092E3
:100EE000C100E0912903F0912A0312E01083E09100
:100EF0002503F09126031082E0912703F091280347
:100F00008FEC808310923103E0912D03F0912E033A
:100F100086E08083E0912B03F0912C038081806137
:100F20008083E0912B03F0912C0380818860808383
:100F3000E0912B03F0912C03808180688083E09105
:100F40002B03F0912C0380818F7D8083F8948BE0BC
:100F50000E94610182E00E946F041092A0008DE067
:100F60008093A1001093720088E09DE39093A90004
:100F70008093A80078944AE0F42E89E193E00E94DF
:100F8000BC01182F813609F430C186E193E00E943C
:100F90008E05133609F01AC110921603109217032A
:100FA0001092180381E080935F0249C060E080E006
:100FB0000E940C056EE172E086EB93E00E948C05C6
:100FC00081E090E00E94830560E083E00E940C05D0
:100FD00080E692E00E948E0560E08DE00E940C05A4
:100FE00062E272E086EB93E00E948C05809114032C
:100FF0008A3030F46EE172E086EB93E00E948C055B
:101000006091140386EB93E00E947C0561E085E02B
:101010000E940C0564E272E086EB93E00E948C056E
:1010200061E080E00E940C05E12C10E089E193E092
:101030000E94BC01082F813669F40E9467048091E8
:101040001503882321F00E949B03109215030E9430
:10105000830293CF823611F501E00E0D80911403C7
:10106000081708F00E2D60E080E00E940C050A30A1
:1010700030F46EE172E086EB93E00E948C05802FE5
:1010800090E001960E94830523E0029FC001112495
:10109000805A9D4F0E948E05E02EC8CF833209F002
:1010A00065C0111117C061E080E00E940C0560E38B
:1010B00072E086EB93E00E948C050E949B0361E046
:1010C00080E00E940C056AE372E086EB93E00E94E8
:1010D0008C05ACCF8981123009F045C01A811150BE
:1010E0008F9D100D112480911403181708F057C01C
:1010F00060E080E00E940C051A3030F46EE172E08E
:1011000086EB93E00E948C05812F90E001960E946F
:10111000830560E083E00E940C0523E0129FC0017C
:101120001124805A9D4F0E948E0561E080E00E944C
:101130000C0564E372E086EB93E00E948C050E944C
:10114000A90368EC70E080E090E00E94650361E034
:1011500080E00E940C0569E372E086EB93E00E9458
:101160008C05E12E62CF1FEF180FBDCF30EDD32ECF
:10117000D80E89E08D1508F459CF123080F461E063
:10118000812F0E940C0541E0602F86EB93E00E94C6
:101190000E041F5FFE01E10FF11DD08247CF61E019
:1011A00080E00E940C0560E372E086EB93E00E9411
:1011B0008C050E949B0361E080E00E940C056AE3BD
:1011C00072E086EB93E00E948C052FCF143651F528
:1011D00080915F0291E08927E6CE109214030E946D
:1011E000A9032DCF0E949B033DC00E9467048091FC
:1011F00014038111DBCE6EE372E086EB93E00E9474
:101200008C0561E08AE00E940C056FE472E086EBD9
:1012100093E00E948C0589E193E00E94BC018A3230
:10122000D1F70BCF1A32C9F2133209F008CF8091EF
:1012300014038C33B8F68F5F809314038150990B9D
:10124000FC01EE0FFF1FE80FF91FE05AFD4F8091E0
:10125000160390911703A091180380839183A283B2
:101260000E94A90368EC70E080E090E00E946503B2
:101270006091160389E193E00E947C0560E272E0D0
:1012800089E193E00E948C056091170389E193E066
:101290000E947C0560E272E089E193E00E948C0587
:1012A0006091180389E193E00E947C05C8CEA1E219
:1012B0001A2EAA1BBB1BFD010DC0AA1FBB1FEE1FD0
:1012C000FF1FA217B307E407F50720F0A21BB30B1B
:1012D000E40BF50B661F771F881F991F1A9469F797
:1012E00060957095809590959B01AC01BD01CF01F3
:1012F0000895EE0FFF1F881F8BBF0790F691E02D1A
:061300001994F894FFCFE0
:101306000000000016028001AD016302DE01BC018F
:10131600D001000000001B058001980397033000F0
:101326003A004D003C2D4120592D2320422D3E00F0
:1013360042414E00444F4E45002020202000526579
:10134600676973746572277320656D7074790042DE
:0613560061636B2D2A000B
:00000001FF
